{
  "_format": "hh-sol-artifact-1",
  "contractName": "AdmissionPBFTLite",
  "sourceName": "contract/contracts/Admission.sol",
  "abi": [
    {
      "inputs": [],
      "stateMutability": "nonpayable",
      "type": "constructor"
    },
    {
      "anonymous": false,
      "inputs": [
        {
          "indexed": false,
          "internalType": "uint256",
          "name": "studentId",
          "type": "uint256"
        },
        {
          "indexed": false,
          "internalType": "string",
          "name": "name",
          "type": "string"
        },
        {
          "indexed": false,
          "internalType": "uint256",
          "name": "score",
          "type": "uint256"
        },
        {
          "indexed": false,
          "internalType": "string",
          "name": "status",
          "type": "string"
        },
        {
          "indexed": false,
          "internalType": "uint256",
          "name": "timestamp",
          "type": "uint256"
        }
      ],
      "name": "ApplicationSubmitted",
      "type": "event"
    },
    {
      "anonymous": false,
      "inputs": [
        {
          "indexed": false,
          "internalType": "uint256",
          "name": "id",
          "type": "uint256"
        },
        {
          "indexed": false,
          "internalType": "string",
          "name": "name",
          "type": "string"
        },
        {
          "indexed": false,
          "internalType": "uint256",
          "name": "minMarks",
          "type": "uint256"
        }
      ],
      "name": "CollegeAdded",
      "type": "event"
    },
    {
      "anonymous": false,
      "inputs": [
        {
          "indexed": false,
          "internalType": "uint256",
          "name": "studentId",
          "type": "uint256"
        },
        {
          "indexed": false,
          "internalType": "string",
          "name": "newStatus",
          "type": "string"
        }
      ],
      "name": "StatusUpdated",
      "type": "event"
    },
    {
      "inputs": [
        {
          "internalType": "uint256",
          "name": "id",
          "type": "uint256"
        },
        {
          "internalType": "string",
          "name": "name",
          "type": "string"
        },
        {
          "internalType": "uint256",
          "name": "minMarks",
          "type": "uint256"
        }
      ],
      "name": "addCollege",
      "outputs": [],
      "stateMutability": "nonpayable",
      "type": "function"
    },
    {
      "inputs": [
        {
          "internalType": "uint256",
          "name": "",
          "type": "uint256"
        }
      ],
      "name": "applicantIds",
      "outputs": [
        {
          "internalType": "uint256",
          "name": "",
          "type": "uint256"
        }
      ],
      "stateMutability": "view",
      "type": "function"
    },
    {
      "inputs": [
        {
          "internalType": "uint256",
          "name": "",
          "type": "uint256"
        }
      ],
      "name": "applicants",
      "outputs": [
        {
          "internalType": "string",
          "name": "name",
          "type": "string"
        },
        {
          "internalType": "uint256",
          "name": "id",
          "type": "uint256"
        },
        {
          "internalType": "uint256",
          "name": "score",
          "type": "uint256"
        },
        {
          "internalType": "string",
          "name": "marksheetProof",
          "type": "string"
        },
        {
          "internalType": "string",
          "name": "status",
          "type": "string"
        },
        {
          "internalType": "uint256",
          "name": "timestamp",
          "type": "uint256"
        },
        {
          "internalType": "address",
          "name": "submitter",
          "type": "address"
        },
        {
          "internalType": "bool",
          "name": "exists",
          "type": "bool"
        }
      ],
      "stateMutability": "view",
      "type": "function"
    },
    {
      "inputs": [
        {
          "internalType": "uint256",
          "name": "studentId",
          "type": "uint256"
        },
        {
          "internalType": "string",
          "name": "name",
          "type": "string"
        },
        {
          "internalType": "uint256",
          "name": "score",
          "type": "uint256"
        },
        {
          "internalType": "string",
          "name": "marksheetProof",
          "type": "string"
        },
        {
          "internalType": "uint256[3]",
          "name": "preferences",
          "type": "uint256[3]"
        }
      ],
      "name": "applyForAdmission",
      "outputs": [],
      "stateMutability": "nonpayable",
      "type": "function"
    },
    {
      "inputs": [
        {
          "internalType": "uint256",
          "name": "",
          "type": "uint256"
        }
      ],
      "name": "collegeIds",
      "outputs": [
        {
          "internalType": "uint256",
          "name": "",
          "type": "uint256"
        }
      ],
      "stateMutability": "view",
      "type": "function"
    },
    {
      "inputs": [
        {
          "internalType": "uint256",
          "name": "",
          "type": "uint256"
        }
      ],
      "name": "colleges",
      "outputs": [
        {
          "internalType": "uint256",
          "name": "id",
          "type": "uint256"
        },
        {
          "internalType": "string",
          "name": "name",
          "type": "string"
        },
        {
          "internalType": "uint256",
          "name": "minMarks",
          "type": "uint256"
        },
        {
          "internalType": "bool",
          "name": "exists",
          "type": "bool"
        }
      ],
      "stateMutability": "view",
      "type": "function"
    },
    {
      "inputs": [],
      "name": "deployer",
      "outputs": [
        {
          "internalType": "address",
          "name": "",
          "type": "address"
        }
      ],
      "stateMutability": "view",
      "type": "function"
    },
    {
      "inputs": [],
      "name": "getAllApplicants",
      "outputs": [
        {
          "components": [
            {
              "internalType": "string",
              "name": "name",
              "type": "string"
            },
            {
              "internalType": "uint256",
              "name": "id",
              "type": "uint256"
            },
            {
              "internalType": "uint256",
              "name": "score",
              "type": "uint256"
            },
            {
              "internalType": "string",
              "name": "marksheetProof",
              "type": "string"
            },
            {
              "internalType": "uint256[3]",
              "name": "preferences",
              "type": "uint256[3]"
            },
            {
              "internalType": "string",
              "name": "status",
              "type": "string"
            },
            {
              "internalType": "uint256",
              "name": "timestamp",
              "type": "uint256"
            },
            {
              "internalType": "address",
              "name": "submitter",
              "type": "address"
            },
            {
              "internalType": "bool",
              "name": "exists",
              "type": "bool"
            }
          ],
          "internalType": "struct AdmissionPBFTLite.Applicant[]",
          "name": "",
          "type": "tuple[]"
        }
      ],
      "stateMutability": "view",
      "type": "function"
    },
    {
      "inputs": [],
      "name": "getAllColleges",
      "outputs": [
        {
          "internalType": "uint256[]",
          "name": "ids",
          "type": "uint256[]"
        },
        {
          "internalType": "string[]",
          "name": "names",
          "type": "string[]"
        },
        {
          "internalType": "uint256[]",
          "name": "minMarks",
          "type": "uint256[]"
        }
      ],
      "stateMutability": "view",
      "type": "function"
    },
    {
      "inputs": [
        {
          "internalType": "uint256",
          "name": "studentId",
          "type": "uint256"
        },
        {
          "internalType": "string",
          "name": "newStatus",
          "type": "string"
        }
      ],
      "name": "updateStatus",
      "outputs": [],
      "stateMutability": "nonpayable",
      "type": "function"
    }
  ],
  "bytecode": "0x6080604052348015600f57600080fd5b50336000806101000a81548173ffffffffffffffffffffffffffffffffffffffff021916908373ffffffffffffffffffffffffffffffffffffffff16021790555061209f8061005f6000396000f3fe608060405234801561001057600080fd5b506004361061009e5760003560e01c8063a79e022811610066578063a79e022814610177578063cdf1546714610197578063d1b34dd8146101c7578063d5f39488146101e3578063efb9bce0146102015761009e565b8063388d5399146100a35780633fbfe105146100c157806354712f0e146100dd57806363de53231461010d57806391bbf4f314610144575b600080fd5b6100ab61021d565b6040516100b891906113d6565b60405180910390f35b6100db60048036038101906100d6919061156d565b610586565b005b6100f760048036038101906100f291906115dc565b6106d7565b6040516101049190611618565b60405180910390f35b610127600480360381019061012291906115dc565b6106fb565b60405161013b98979695949392919061169b565b60405180910390f35b61015e600480360381019061015991906115dc565b610908565b60405161016e949392919061172e565b60405180910390f35b61017f6109cd565b60405161018e939291906118d3565b60405180910390f35b6101b160048036038101906101ac91906115dc565b610c54565b6040516101be9190611618565b60405180910390f35b6101e160048036038101906101dc919061191f565b610c78565b005b6101eb610d3c565b6040516101f8919061197b565b60405180910390f35b61021b60048036038101906102169190611a4c565b610d60565b005b6060600060048054905067ffffffffffffffff8111156102405761023f611442565b5b60405190808252806020026020018201604052801561027957816020015b610266610fb5565b81526020019060019003908161025e5790505b50905060005b60048054905081101561057e5760036000600483815481106102a4576102a3611aff565b5b90600052602060002001548152602001908152602001600020604051806101200160405290816000820180546102d990611b5d565b80601f016020809104026020016040519081016040528092919081815260200182805461030590611b5d565b80156103525780601f1061032757610100808354040283529160200191610352565b820191906000526020600020905b81548152906001019060200180831161033557829003601f168201915b50505050508152602001600182015481526020016002820154815260200160038201805461037f90611b5d565b80601f01602080910402602001604051908101604052809291908181526020018280546103ab90611b5d565b80156103f85780601f106103cd576101008083540402835291602001916103f8565b820191906000526020600020905b8154815290600101906020018083116103db57829003601f168201915b505050505081526020016004820160038060200260405190810160405280929190826003801561043d576020028201915b815481526020019060010190808311610429575b5050505050815260200160078201805461045690611b5d565b80601f016020809104026020016040519081016040528092919081815260200182805461048290611b5d565b80156104cf5780601f106104a4576101008083540402835291602001916104cf565b820191906000526020600020905b8154815290600101906020018083116104b257829003601f168201915b50505050508152602001600882015481526020016009820160009054906101000a900473ffffffffffffffffffffffffffffffffffffffff1673ffffffffffffffffffffffffffffffffffffffff1673ffffffffffffffffffffffffffffffffffffffff1681526020016009820160149054906101000a900460ff16151515158152505082828151811061056657610565611aff565b5b6020026020010181905250808060010191505061027f565b508091505090565b6001600084815260200190815260200160002060030160009054906101000a900460ff16156105ea576040517f08c379a00000000000000000000000000000000000000000000000000000000081526004016105e190611bda565b60405180910390fd5b604051806080016040528084815260200183815260200182815260200160011515815250600160008581526020019081526020016000206000820151816000015560208201518160010190816106409190611da6565b506040820151816002015560608201518160030160006101000a81548160ff02191690831515021790555090505060028390806001815401808255809150506001900390600052602060002001600090919091909150557f16874765011282d75647ec223cdb4707c095ce18660623ed61726e96b2aecad18383836040516106ca93929190611e78565b60405180910390a1505050565b600281815481106106e757600080fd5b906000526020600020016000915090505481565b600360205280600052604060002060009150905080600001805461071e90611b5d565b80601f016020809104026020016040519081016040528092919081815260200182805461074a90611b5d565b80156107975780601f1061076c57610100808354040283529160200191610797565b820191906000526020600020905b81548152906001019060200180831161077a57829003601f168201915b5050505050908060010154908060020154908060030180546107b890611b5d565b80601f01602080910402602001604051908101604052809291908181526020018280546107e490611b5d565b80156108315780601f1061080657610100808354040283529160200191610831565b820191906000526020600020905b81548152906001019060200180831161081457829003601f168201915b50505050509080600701805461084690611b5d565b80601f016020809104026020016040519081016040528092919081815260200182805461087290611b5d565b80156108bf5780601f10610894576101008083540402835291602001916108bf565b820191906000526020600020905b8154815290600101906020018083116108a257829003601f168201915b5050505050908060080154908060090160009054906101000a900473ffffffffffffffffffffffffffffffffffffffff16908060090160149054906101000a900460ff16905088565b600160205280600052604060002060009150905080600001549080600101805461093190611b5d565b80601f016020809104026020016040519081016040528092919081815260200182805461095d90611b5d565b80156109aa5780601f1061097f576101008083540402835291602001916109aa565b820191906000526020600020905b81548152906001019060200180831161098d57829003601f168201915b5050505050908060020154908060030160009054906101000a900460ff16905084565b6060806060600060028054905090508067ffffffffffffffff8111156109f6576109f5611442565b5b604051908082528060200260200182016040528015610a245781602001602082028036833780820191505090505b5093508067ffffffffffffffff811115610a4157610a40611442565b5b604051908082528060200260200182016040528015610a7457816020015b6060815260200190600190039081610a5f5790505b5092508067ffffffffffffffff811115610a9157610a90611442565b5b604051908082528060200260200182016040528015610abf5781602001602082028036833780820191505090505b50915060005b81811015610c4d57600060028281548110610ae357610ae2611aff565b5b9060005260206000200154905060006001600083815260200190815260200160002060405180608001604052908160008201548152602001600182018054610b2a90611b5d565b80601f0160208091040260200160405190810160405280929190818152602001828054610b5690611b5d565b8015610ba35780601f10610b7857610100808354040283529160200191610ba3565b820191906000526020600020905b815481529060010190602001808311610b8657829003601f168201915b50505050508152602001600282015481526020016003820160009054906101000a900460ff16151515158152505090508060000151878481518110610beb57610bea611aff565b5b6020026020010181815250508060200151868481518110610c0f57610c0e611aff565b5b60200260200101819052508060400151858481518110610c3257610c31611aff565b5b60200260200101818152505050508080600101915050610ac5565b5050909192565b60048181548110610c6457600080fd5b906000526020600020016000915090505481565b6003600083815260200190815260200160002060090160149054906101000a900460ff16610cdb576040517f08c379a0000000000000000000000000000000000000000000000000000000008152600401610cd290611f02565b60405180910390fd5b80600360008481526020019081526020016000206007019081610cfe9190611da6565b507fdc280875b120650ffe3edf5f724f07fd086361a32c2a387fe34b495f5679e77d8282604051610d30929190611f22565b60405180910390a15050565b60008054906101000a900473ffffffffffffffffffffffffffffffffffffffff1681565b6003600086815260200190815260200160002060090160149054906101000a900460ff1615610dc4576040517f08c379a0000000000000000000000000000000000000000000000000000000008152600401610dbb90611f9e565b60405180910390fd5b6040518061012001604052808581526020018681526020018481526020018381526020018281526020016040518060400160405280600981526020017f5375626d6974746564000000000000000000000000000000000000000000000081525081526020014281526020013373ffffffffffffffffffffffffffffffffffffffff16815260200160011515815250600360008781526020019081526020016000206000820151816000019081610e7a9190611da6565b5060208201518160010155604082015181600201556060820151816003019081610ea49190611da6565b50608082015181600401906003610ebc92919061101f565b5060a0820151816007019081610ed29190611da6565b5060c0820151816008015560e08201518160090160006101000a81548173ffffffffffffffffffffffffffffffffffffffff021916908373ffffffffffffffffffffffffffffffffffffffff1602179055506101008201518160090160146101000a81548160ff02191690831515021790555090505060048590806001815401808255809150506001900390600052602060002001600090919091909150557feffd97f2b0311cb43fd300c616d0825c5f0d36119cc6e9ddc10810776171833a85858542604051610fa6949392919061200a565b60405180910390a15050505050565b60405180610120016040528060608152602001600081526020016000815260200160608152602001610fe561105f565b81526020016060815260200160008152602001600073ffffffffffffffffffffffffffffffffffffffff1681526020016000151581525090565b826003810192821561104e579160200282015b8281111561104d578251825591602001919060010190611032565b5b50905061105b9190611081565b5090565b6040518060600160405280600390602082028036833780820191505090505090565b5b8082111561109a576000816000905550600101611082565b5090565b600081519050919050565b600082825260208201905092915050565b6000819050602082019050919050565b600081519050919050565b600082825260208201905092915050565b60005b838110156111045780820151818401526020810190506110e9565b60008484015250505050565b6000601f19601f8301169050919050565b600061112c826110ca565b61113681856110d5565b93506111468185602086016110e6565b61114f81611110565b840191505092915050565b6000819050919050565b61116d8161115a565b82525050565b600060039050919050565b600081905092915050565b6000819050919050565b600061119f8383611164565b60208301905092915050565b6000602082019050919050565b6111c181611173565b6111cb818461117e565b92506111d682611189565b8060005b838110156112075781516111ee8782611193565b96506111f9836111ab565b9250506001810190506111da565b505050505050565b600073ffffffffffffffffffffffffffffffffffffffff82169050919050565b600061123a8261120f565b9050919050565b61124a8161122f565b82525050565b60008115159050919050565b61126581611250565b82525050565b60006101608301600083015184820360008601526112898282611121565b915050602083015161129e6020860182611164565b5060408301516112b16040860182611164565b50606083015184820360608601526112c98282611121565b91505060808301516112de60808601826111b8565b5060a083015184820360e08601526112f68282611121565b91505060c083015161130c610100860182611164565b5060e0830151611320610120860182611241565b5061010083015161133561014086018261125c565b508091505092915050565b600061134c838361126b565b905092915050565b6000602082019050919050565b600061136c8261109e565b61137681856110a9565b935083602082028501611388856110ba565b8060005b858110156113c457848403895281516113a58582611340565b94506113b083611354565b925060208a0199505060018101905061138c565b50829750879550505050505092915050565b600060208201905081810360008301526113f08184611361565b905092915050565b6000604051905090565b600080fd5b600080fd5b6114158161115a565b811461142057600080fd5b50565b6000813590506114328161140c565b92915050565b600080fd5b600080fd5b7f4e487b7100000000000000000000000000000000000000000000000000000000600052604160045260246000fd5b61147a82611110565b810181811067ffffffffffffffff8211171561149957611498611442565b5b80604052505050565b60006114ac6113f8565b90506114b88282611471565b919050565b600067ffffffffffffffff8211156114d8576114d7611442565b5b6114e182611110565b9050602081019050919050565b82818337600083830152505050565b600061151061150b846114bd565b6114a2565b90508281526020810184848401111561152c5761152b61143d565b5b6115378482856114ee565b509392505050565b600082601f83011261155457611553611438565b5b81356115648482602086016114fd565b91505092915050565b60008060006060848603121561158657611585611402565b5b600061159486828701611423565b935050602084013567ffffffffffffffff8111156115b5576115b4611407565b5b6115c18682870161153f565b92505060406115d286828701611423565b9150509250925092565b6000602082840312156115f2576115f1611402565b5b600061160084828501611423565b91505092915050565b6116128161115a565b82525050565b600060208201905061162d6000830184611609565b92915050565b600082825260208201905092915050565b600061164f826110ca565b6116598185611633565b93506116698185602086016110e6565b61167281611110565b840191505092915050565b6116868161122f565b82525050565b61169581611250565b82525050565b60006101008201905081810360008301526116b6818b611644565b90506116c5602083018a611609565b6116d26040830189611609565b81810360608301526116e48188611644565b905081810360808301526116f88187611644565b905061170760a0830186611609565b61171460c083018561167d565b61172160e083018461168c565b9998505050505050505050565b60006080820190506117436000830187611609565b81810360208301526117558186611644565b90506117646040830185611609565b611771606083018461168c565b95945050505050565b600081519050919050565b600082825260208201905092915050565b6000819050602082019050919050565b6000602082019050919050565b60006117be8261177a565b6117c88185611785565b93506117d383611796565b8060005b838110156118045781516117eb8882611193565b97506117f6836117a6565b9250506001810190506117d7565b5085935050505092915050565b600081519050919050565b600082825260208201905092915050565b6000819050602082019050919050565b60006118498383611121565b905092915050565b6000602082019050919050565b600061186982611811565b611873818561181c565b9350836020820285016118858561182d565b8060005b858110156118c157848403895281516118a2858261183d565b94506118ad83611851565b925060208a01995050600181019050611889565b50829750879550505050505092915050565b600060608201905081810360008301526118ed81866117b3565b90508181036020830152611901818561185e565b9050818103604083015261191581846117b3565b9050949350505050565b6000806040838503121561193657611935611402565b5b600061194485828601611423565b925050602083013567ffffffffffffffff81111561196557611964611407565b5b6119718582860161153f565b9150509250929050565b6000602082019050611990600083018461167d565b92915050565b600067ffffffffffffffff8211156119b1576119b0611442565b5b602082029050919050565b600080fd5b60006119d46119cf84611996565b6114a2565b905080602084028301858111156119ee576119ed6119bc565b5b835b81811015611a175780611a038882611423565b8452602084019350506020810190506119f0565b5050509392505050565b600082601f830112611a3657611a35611438565b5b6003611a438482856119c1565b91505092915050565b600080600080600060e08688031215611a6857611a67611402565b5b6000611a7688828901611423565b955050602086013567ffffffffffffffff811115611a9757611a96611407565b5b611aa38882890161153f565b9450506040611ab488828901611423565b935050606086013567ffffffffffffffff811115611ad557611ad4611407565b5b611ae18882890161153f565b9250506080611af288828901611a21565b9150509295509295909350565b7f4e487b7100000000000000000000000000000000000000000000000000000000600052603260045260246000fd5b7f4e487b7100000000000000000000000000000000000000000000000000000000600052602260045260246000fd5b60006002820490506001821680611b7557607f821691505b602082108103611b8857611b87611b2e565b5b50919050565b7f416c726561647920657869737473000000000000000000000000000000000000600082015250565b6000611bc4600e83611633565b9150611bcf82611b8e565b602082019050919050565b60006020820190508181036000830152611bf381611bb7565b9050919050565b60008190508160005260206000209050919050565b60006020601f8301049050919050565b600082821b905092915050565b600060088302611c5c7fffffffffffffffffffffffffffffffffffffffffffffffffffffffffffffffff82611c1f565b611c668683611c1f565b95508019841693508086168417925050509392505050565b6000819050919050565b6000611ca3611c9e611c998461115a565b611c7e565b61115a565b9050919050565b6000819050919050565b611cbd83611c88565b611cd1611cc982611caa565b848454611c2c565b825550505050565b600090565b611ce6611cd9565b611cf1818484611cb4565b505050565b5b81811015611d1557611d0a600082611cde565b600181019050611cf7565b5050565b601f821115611d5a57611d2b81611bfa565b611d3484611c0f565b81016020851015611d43578190505b611d57611d4f85611c0f565b830182611cf6565b50505b505050565b600082821c905092915050565b6000611d7d60001984600802611d5f565b1980831691505092915050565b6000611d968383611d6c565b9150826002028217905092915050565b611daf826110ca565b67ffffffffffffffff811115611dc857611dc7611442565b5b611dd28254611b5d565b611ddd828285611d19565b600060209050601f831160018114611e105760008415611dfe578287015190505b611e088582611d8a565b865550611e70565b601f198416611e1e86611bfa565b60005b82811015611e4657848901518255600182019150602085019450602081019050611e21565b86831015611e635784890151611e5f601f891682611d6c565b8355505b6001600288020188555050505b505050505050565b6000606082019050611e8d6000830186611609565b8181036020830152611e9f8185611644565b9050611eae6040830184611609565b949350505050565b7f4e6f7420666f756e640000000000000000000000000000000000000000000000600082015250565b6000611eec600983611633565b9150611ef782611eb6565b602082019050919050565b60006020820190508181036000830152611f1b81611edf565b9050919050565b6000604082019050611f376000830185611609565b8181036020830152611f498184611644565b90509392505050565b7f416c7265616479206170706c6965640000000000000000000000000000000000600082015250565b6000611f88600f83611633565b9150611f9382611f52565b602082019050919050565b60006020820190508181036000830152611fb781611f7b565b9050919050565b7f5375626d69747465640000000000000000000000000000000000000000000000600082015250565b6000611ff4600983611633565b9150611fff82611fbe565b602082019050919050565b600060a08201905061201f6000830187611609565b81810360208301526120318186611644565b90506120406040830185611609565b818103606083015261205181611fe7565b90506120606080830184611609565b9594505050505056fea2646970667358221220f867add415b8aa7c180763b83bbf34c7bca56ee6bcc6b8b40854c39d028e6f9764736f6c634300081c0033",
  "linkReferences": {},
  "deployedLinkReferences": {}
}