{
  "_format": "hh-sol-artifact-1",
  "contractName": "AdmissionPBFTLite",
  "sourceName": "contracts/Admission.sol",
  "abi": [
    {
      "inputs": [
        {
          "internalType": "address[]",
          "name": "initialValidators",
          "type": "address[]"
        }
      ],
      "stateMutability": "nonpayable",
      "type": "constructor"
    },
    {
      "anonymous": false,
      "inputs": [
        {
          "indexed": true,
          "internalType": "uint256",
          "name": "studentId",
          "type": "uint256"
        },
        {
          "indexed": false,
          "internalType": "bytes32",
          "name": "dataHash",
          "type": "bytes32"
        }
      ],
      "name": "ApplicationSubmitted",
      "type": "event"
    },
    {
      "anonymous": false,
      "inputs": [
        {
          "indexed": true,
          "internalType": "bytes32",
          "name": "proposalId",
          "type": "bytes32"
        },
        {
          "indexed": true,
          "internalType": "address",
          "name": "validator",
          "type": "address"
        },
        {
          "indexed": false,
          "internalType": "uint256",
          "name": "approvals",
          "type": "uint256"
        }
      ],
      "name": "ProposalApproved",
      "type": "event"
    },
    {
      "anonymous": false,
      "inputs": [
        {
          "indexed": true,
          "internalType": "bytes32",
          "name": "proposalId",
          "type": "bytes32"
        },
        {
          "indexed": false,
          "internalType": "bytes32",
          "name": "actionHash",
          "type": "bytes32"
        }
      ],
      "name": "ProposalCreated",
      "type": "event"
    },
    {
      "anonymous": false,
      "inputs": [
        {
          "indexed": true,
          "internalType": "bytes32",
          "name": "proposalId",
          "type": "bytes32"
        },
        {
          "indexed": false,
          "internalType": "bytes32",
          "name": "actionHash",
          "type": "bytes32"
        }
      ],
      "name": "ProposalExecuted",
      "type": "event"
    },
    {
      "anonymous": false,
      "inputs": [
        {
          "indexed": true,
          "internalType": "uint256",
          "name": "studentId",
          "type": "uint256"
        },
        {
          "indexed": false,
          "internalType": "string",
          "name": "newStatus",
          "type": "string"
        }
      ],
      "name": "StatusUpdated",
      "type": "event"
    },
    {
      "anonymous": false,
      "inputs": [
        {
          "indexed": true,
          "internalType": "address",
          "name": "validator",
          "type": "address"
        }
      ],
      "name": "ValidatorAdded",
      "type": "event"
    },
    {
      "inputs": [
        {
          "internalType": "uint256",
          "name": "",
          "type": "uint256"
        }
      ],
      "name": "applicants",
      "outputs": [
        {
          "internalType": "bytes32",
          "name": "dataHash",
          "type": "bytes32"
        },
        {
          "internalType": "string",
          "name": "status",
          "type": "string"
        },
        {
          "internalType": "bool",
          "name": "exists",
          "type": "bool"
        }
      ],
      "stateMutability": "view",
      "type": "function"
    },
    {
      "inputs": [
        {
          "internalType": "uint256",
          "name": "studentId",
          "type": "uint256"
        },
        {
          "internalType": "bytes32",
          "name": "dataHash",
          "type": "bytes32"
        }
      ],
      "name": "applyForAdmission",
      "outputs": [],
      "stateMutability": "nonpayable",
      "type": "function"
    },
    {
      "inputs": [
        {
          "internalType": "bytes32",
          "name": "proposalId",
          "type": "bytes32"
        },
        {
          "internalType": "bytes32",
          "name": "actionHash",
          "type": "bytes32"
        }
      ],
      "name": "approveProposal",
      "outputs": [],
      "stateMutability": "nonpayable",
      "type": "function"
    },
    {
      "inputs": [],
      "name": "deployer",
      "outputs": [
        {
          "internalType": "address",
          "name": "",
          "type": "address"
        }
      ],
      "stateMutability": "view",
      "type": "function"
    },
    {
      "inputs": [
        {
          "internalType": "uint256",
          "name": "studentId",
          "type": "uint256"
        }
      ],
      "name": "enqueueWaitlist",
      "outputs": [],
      "stateMutability": "nonpayable",
      "type": "function"
    },
    {
      "inputs": [
        {
          "internalType": "bytes32",
          "name": "proposalId",
          "type": "bytes32"
        },
        {
          "internalType": "uint256",
          "name": "seatLimit",
          "type": "uint256"
        }
      ],
      "name": "executeSetAdmissionCriteria",
      "outputs": [],
      "stateMutability": "nonpayable",
      "type": "function"
    },
    {
      "inputs": [
        {
          "internalType": "address",
          "name": "",
          "type": "address"
        }
      ],
      "name": "isValidator",
      "outputs": [
        {
          "internalType": "bool",
          "name": "",
          "type": "bool"
        }
      ],
      "stateMutability": "view",
      "type": "function"
    },
    {
      "inputs": [],
      "name": "pbftThreshold",
      "outputs": [
        {
          "internalType": "uint256",
          "name": "",
          "type": "uint256"
        }
      ],
      "stateMutability": "view",
      "type": "function"
    },
    {
      "inputs": [],
      "name": "proposalNonce",
      "outputs": [
        {
          "internalType": "uint256",
          "name": "",
          "type": "uint256"
        }
      ],
      "stateMutability": "view",
      "type": "function"
    },
    {
      "inputs": [
        {
          "internalType": "uint256",
          "name": "seatLimit",
          "type": "uint256"
        }
      ],
      "name": "proposeSetAdmissionCriteria",
      "outputs": [
        {
          "internalType": "bytes32",
          "name": "proposalId",
          "type": "bytes32"
        }
      ],
      "stateMutability": "nonpayable",
      "type": "function"
    },
    {
      "inputs": [],
      "name": "seatsAvailable",
      "outputs": [
        {
          "internalType": "uint256",
          "name": "",
          "type": "uint256"
        }
      ],
      "stateMutability": "view",
      "type": "function"
    },
    {
      "inputs": [],
      "name": "updateWaitlist",
      "outputs": [],
      "stateMutability": "nonpayable",
      "type": "function"
    },
    {
      "inputs": [
        {
          "internalType": "uint256",
          "name": "",
          "type": "uint256"
        }
      ],
      "name": "validatorSet",
      "outputs": [
        {
          "internalType": "address",
          "name": "",
          "type": "address"
        }
      ],
      "stateMutability": "view",
      "type": "function"
    }
  ],
  "bytecode": "0x608060405234801561001057600080fd5b5060405161233d38038061233d833981810160405281019061003291906104cb565b336000806101000a81548173ffffffffffffffffffffffffffffffffffffffff021916908373ffffffffffffffffffffffffffffffffffffffff16021790555060008151116100b6576040517f08c379a00000000000000000000000000000000000000000000000000000000081526004016100ad90610571565b60405180910390fd5b60005b81518110156102b35760008282815181106100d7576100d6610591565b5b60200260200101519050600073ffffffffffffffffffffffffffffffffffffffff168173ffffffffffffffffffffffffffffffffffffffff16141580156101685750600260008273ffffffffffffffffffffffffffffffffffffffff1673ffffffffffffffffffffffffffffffffffffffff16815260200190815260200160002060009054906101000a900460ff16155b6101a7576040517f08c379a000000000000000000000000000000000000000000000000000000000815260040161019e9061060c565b60405180910390fd5b6001600260008373ffffffffffffffffffffffffffffffffffffffff1673ffffffffffffffffffffffffffffffffffffffff16815260200190815260200160002060006101000a81548160ff0219169083151502179055506003819080600181540180825580915050600190039060005260206000200160009091909190916101000a81548173ffffffffffffffffffffffffffffffffffffffff021916908373ffffffffffffffffffffffffffffffffffffffff1602179055508073ffffffffffffffffffffffffffffffffffffffff167fe366c1c0452ed8eec96861e9e54141ebff23c9ec89fe27b996b45f5ec388498760405160405180910390a25080806001019150506100b9565b506102c26102c860201b60201c565b5061073b565b60006003805490509050600160038260026102e39190610665565b6102ed91906106d6565b6102f79190610707565b60048190555050565b6000604051905090565b600080fd5b600080fd5b600080fd5b6000601f19601f8301169050919050565b7f4e487b7100000000000000000000000000000000000000000000000000000000600052604160045260246000fd5b61036282610319565b810181811067ffffffffffffffff821117156103815761038061032a565b5b80604052505050565b6000610394610300565b90506103a08282610359565b919050565b600067ffffffffffffffff8211156103c0576103bf61032a565b5b602082029050602081019050919050565b600080fd5b600073ffffffffffffffffffffffffffffffffffffffff82169050919050565b6000610401826103d6565b9050919050565b610411816103f6565b811461041c57600080fd5b50565b60008151905061042e81610408565b92915050565b6000610447610442846103a5565b61038a565b9050808382526020820190506020840283018581111561046a576104696103d1565b5b835b81811015610493578061047f888261041f565b84526020840193505060208101905061046c565b5050509392505050565b600082601f8301126104b2576104b1610314565b5b81516104c2848260208601610434565b91505092915050565b6000602082840312156104e1576104e061030a565b5b600082015167ffffffffffffffff8111156104ff576104fe61030f565b5b61050b8482850161049d565b91505092915050565b600082825260208201905092915050565b7f4e6565642076616c696461746f72730000000000000000000000000000000000600082015250565b600061055b600f83610514565b915061056682610525565b602082019050919050565b6000602082019050818103600083015261058a8161054e565b9050919050565b7f4e487b7100000000000000000000000000000000000000000000000000000000600052603260045260246000fd5b7f496e76616c69642076616c696461746f72000000000000000000000000000000600082015250565b60006105f6601183610514565b9150610601826105c0565b602082019050919050565b60006020820190508181036000830152610625816105e9565b9050919050565b6000819050919050565b7f4e487b7100000000000000000000000000000000000000000000000000000000600052601160045260246000fd5b60006106708261062c565b915061067b8361062c565b92508282026106898161062c565b915082820484148315176106a05761069f610636565b5b5092915050565b7f4e487b7100000000000000000000000000000000000000000000000000000000600052601260045260246000fd5b60006106e18261062c565b91506106ec8361062c565b9250826106fc576106fb6106a7565b5b828204905092915050565b60006107128261062c565b915061071d8361062c565b925082820190508082111561073557610734610636565b5b92915050565b611bf38061074a6000396000f3fe608060405234801561001057600080fd5b50600436106100cf5760003560e01c8063ac8b212f1161008c578063d5f3948811610066578063d5f39488146101ee578063de5d6bbc1461020c578063e64808f314610228578063facd743b14610258576100cf565b8063ac8b212f14610196578063cbca6780146101b4578063cc3c74a1146101d0576100cf565b8063151eceee146100d45780631b228a39146100de578063459211831461010e57806359d044a51461012a578063600c62fb1461014657806363de532314610164575b600080fd5b6100dc610288565b005b6100f860048036038101906100f39190610f31565b61043c565b6040516101059190610f77565b60405180910390f35b61012860048036038101906101239190610fbe565b610506565b005b610144600480360381019061013f9190610f31565b61064f565b005b61014e6107f9565b60405161015b919061100d565b60405180910390f35b61017e60048036038101906101799190610f31565b6107ff565b60405161018d939291906110d3565b60405180910390f35b61019e6108be565b6040516101ab919061100d565b60405180910390f35b6101ce60048036038101906101c99190611111565b6108c4565b005b6101d861090e565b6040516101e5919061100d565b60405180910390f35b6101f6610914565b6040516102039190611192565b60405180910390f35b610226600480360381019061022191906111ad565b610938565b005b610242600480360381019061023d9190610f31565b610bea565b60405161024f9190611192565b60405180910390f35b610272600480360381019061026d9190611219565b610c29565b60405161027f9190611246565b60405180910390f35b600260003373ffffffffffffffffffffffffffffffffffffffff1673ffffffffffffffffffffffffffffffffffffffff16815260200190815260200160002060009054906101000a900460ff16610314576040517f08c379a000000000000000000000000000000000000000000000000000000000815260040161030b906112ad565b60405180910390fd5b5b600060075411801561032c57506000600880549050115b1561043a5760006008600160088054905061034791906112fc565b8154811061035857610357611330565b5b906000526020600020015490506040518060400160405280600781526020017f4f666665726564000000000000000000000000000000000000000000000000008152506001600083815260200190815260200160002060010190816103bd919061159a565b50600760008154809291906103d19061166c565b919050555060088054806103e8576103e7611695565b5b60019003818190600052602060002001600090559055807fdc280875b120650ffe3edf5f724f07fd086361a32c2a387fe34b495f5679e77d60405161042c90611710565b60405180910390a250610315565b565b6000600260003373ffffffffffffffffffffffffffffffffffffffff1673ffffffffffffffffffffffffffffffffffffffff16815260200190815260200160002060009054906101000a900460ff166104ca576040517f08c379a00000000000000000000000000000000000000000000000000000000081526004016104c1906112ad565b60405180910390fd5b6000826040516020016104dd919061177c565b6040516020818303038152906040528051906020012090506104fe81610c49565b915050919050565b6001600083815260200190815260200160002060020160009054906101000a900460ff161561056a576040517f08c379a0000000000000000000000000000000000000000000000000000000008152600401610561906117f6565b60405180910390fd5b60405180606001604052808281526020016040518060400160405280600981526020017f5375626d69747465640000000000000000000000000000000000000000000000815250815260200160011515815250600160008481526020019081526020016000206000820151816000015560208201518160010190816105ef919061159a565b5060408201518160020160006101000a81548160ff021916908315150217905550905050817f5f50f54e16f8a7819f9a462de1f2f17e7f4741d9e3cba201de6e8d1b0302bb0f826040516106439190610f77565b60405180910390a25050565b600260003373ffffffffffffffffffffffffffffffffffffffff1673ffffffffffffffffffffffffffffffffffffffff16815260200190815260200160002060009054906101000a900460ff166106db576040517f08c379a00000000000000000000000000000000000000000000000000000000081526004016106d2906112ad565b60405180910390fd5b6001600082815260200190815260200160002060020160009054906101000a900460ff1661073e576040517f08c379a000000000000000000000000000000000000000000000000000000000815260040161073590611862565b60405180910390fd5b6040518060400160405280600a81526020017f576169746c697374656400000000000000000000000000000000000000000000815250600160008381526020019081526020016000206001019081610796919061159a565b506008819080600181540180825580915050600190039060005260206000200160009091909190915055807fdc280875b120650ffe3edf5f724f07fd086361a32c2a387fe34b495f5679e77d6040516107ee906118ce565b60405180910390a250565b60045481565b6001602052806000526040600020600091509050806000015490806001018054610828906113bd565b80601f0160208091040260200160405190810160405280929190818152602001828054610854906113bd565b80156108a15780601f10610876576101008083540402835291602001916108a1565b820191906000526020600020905b81548152906001019060200180831161088457829003601f168201915b5050505050908060020160009054906101000a900460ff16905083565b60075481565b6000816040516020016108d7919061177c565b6040516020818303038152906040528051906020012090506108f98382610d5f565b8160078190555061090983610e76565b505050565b60055481565b60008054906101000a900473ffffffffffffffffffffffffffffffffffffffff1681565b600260003373ffffffffffffffffffffffffffffffffffffffff1673ffffffffffffffffffffffffffffffffffffffff16815260200190815260200160002060009054906101000a900460ff166109c4576040517f08c379a00000000000000000000000000000000000000000000000000000000081526004016109bb906112ad565b60405180910390fd5b60006006600084815260200190815260200160002090508060040160009054906101000a900460ff168015610a0857508060020160009054906101000a900460ff16155b610a47576040517f08c379a0000000000000000000000000000000000000000000000000000000008152600401610a3e9061193a565b60405180910390fd5b81816000015414610a8d576040517f08c379a0000000000000000000000000000000000000000000000000000000008152600401610a84906119a6565b60405180910390fd5b8060030160003373ffffffffffffffffffffffffffffffffffffffff1673ffffffffffffffffffffffffffffffffffffffff16815260200190815260200160002060009054906101000a900460ff1615610b1c576040517f08c379a0000000000000000000000000000000000000000000000000000000008152600401610b1390611a12565b60405180910390fd5b60018160030160003373ffffffffffffffffffffffffffffffffffffffff1673ffffffffffffffffffffffffffffffffffffffff16815260200190815260200160002060006101000a81548160ff0219169083151502179055506001816001016000828254610b8b9190611a32565b925050819055503373ffffffffffffffffffffffffffffffffffffffff16837f10297faee11712adae652a62361fee2a6409a3c59181f207315794f7e63a25d88360010154604051610bdd919061100d565b60405180910390a3505050565b60038181548110610bfa57600080fd5b906000526020600020016000915054906101000a900473ffffffffffffffffffffffffffffffffffffffff1681565b60026020528060005260406000206000915054906101000a900460ff1681565b600060056000815480929190610c5e90611a66565b91905055508160055430604051602001610c7a93929190611aae565b60405160208183030381529060405280519060200120905060006006600083815260200190815260200160002090508060040160009054906101000a900460ff1615610cfb576040517f08c379a0000000000000000000000000000000000000000000000000000000008152600401610cf2906117f6565b60405180910390fd5b82816000018190555060018160040160006101000a81548160ff021916908315150217905550817f893b6d8d4631b8381e5e0598ae30a4e7f0f1f0e719acece6b618476a0020721684604051610d519190610f77565b60405180910390a250919050565b60006006600084815260200190815260200160002090508060040160009054906101000a900460ff168015610da357508060020160009054906101000a900460ff16155b610de2576040517f08c379a0000000000000000000000000000000000000000000000000000000008152600401610dd99061193a565b60405180910390fd5b81816000015414610e28576040517f08c379a0000000000000000000000000000000000000000000000000000000008152600401610e1f90611b31565b60405180910390fd5b60045481600101541015610e71576040517f08c379a0000000000000000000000000000000000000000000000000000000008152600401610e6890611b9d565b60405180910390fd5b505050565b60016006600083815260200190815260200160002060020160006101000a81548160ff021916908315150217905550807f921387264e63e358003f4757db4b456f399ba4ffbaa053ffab8439d6a32ef59c6006600084815260200190815260200160002060000154604051610eeb9190610f77565b60405180910390a250565b600080fd5b6000819050919050565b610f0e81610efb565b8114610f1957600080fd5b50565b600081359050610f2b81610f05565b92915050565b600060208284031215610f4757610f46610ef6565b5b6000610f5584828501610f1c565b91505092915050565b6000819050919050565b610f7181610f5e565b82525050565b6000602082019050610f8c6000830184610f68565b92915050565b610f9b81610f5e565b8114610fa657600080fd5b50565b600081359050610fb881610f92565b92915050565b60008060408385031215610fd557610fd4610ef6565b5b6000610fe385828601610f1c565b9250506020610ff485828601610fa9565b9150509250929050565b61100781610efb565b82525050565b60006020820190506110226000830184610ffe565b92915050565b600081519050919050565b600082825260208201905092915050565b60005b83811015611062578082015181840152602081019050611047565b60008484015250505050565b6000601f19601f8301169050919050565b600061108a82611028565b6110948185611033565b93506110a4818560208601611044565b6110ad8161106e565b840191505092915050565b60008115159050919050565b6110cd816110b8565b82525050565b60006060820190506110e86000830186610f68565b81810360208301526110fa818561107f565b905061110960408301846110c4565b949350505050565b6000806040838503121561112857611127610ef6565b5b600061113685828601610fa9565b925050602061114785828601610f1c565b9150509250929050565b600073ffffffffffffffffffffffffffffffffffffffff82169050919050565b600061117c82611151565b9050919050565b61118c81611171565b82525050565b60006020820190506111a76000830184611183565b92915050565b600080604083850312156111c4576111c3610ef6565b5b60006111d285828601610fa9565b92505060206111e385828601610fa9565b9150509250929050565b6111f681611171565b811461120157600080fd5b50565b600081359050611213816111ed565b92915050565b60006020828403121561122f5761122e610ef6565b5b600061123d84828501611204565b91505092915050565b600060208201905061125b60008301846110c4565b92915050565b7f4e6f742076616c696461746f7200000000000000000000000000000000000000600082015250565b6000611297600d83611033565b91506112a282611261565b602082019050919050565b600060208201905081810360008301526112c68161128a565b9050919050565b7f4e487b7100000000000000000000000000000000000000000000000000000000600052601160045260246000fd5b600061130782610efb565b915061131283610efb565b925082820390508181111561132a576113296112cd565b5b92915050565b7f4e487b7100000000000000000000000000000000000000000000000000000000600052603260045260246000fd5b7f4e487b7100000000000000000000000000000000000000000000000000000000600052604160045260246000fd5b7f4e487b7100000000000000000000000000000000000000000000000000000000600052602260045260246000fd5b600060028204905060018216806113d557607f821691505b6020821081036113e8576113e761138e565b5b50919050565b60008190508160005260206000209050919050565b60006020601f8301049050919050565b600082821b905092915050565b6000600883026114507fffffffffffffffffffffffffffffffffffffffffffffffffffffffffffffffff82611413565b61145a8683611413565b95508019841693508086168417925050509392505050565b6000819050919050565b600061149761149261148d84610efb565b611472565b610efb565b9050919050565b6000819050919050565b6114b18361147c565b6114c56114bd8261149e565b848454611420565b825550505050565b600090565b6114da6114cd565b6114e58184846114a8565b505050565b5b81811015611509576114fe6000826114d2565b6001810190506114eb565b5050565b601f82111561154e5761151f816113ee565b61152884611403565b81016020851015611537578190505b61154b61154385611403565b8301826114ea565b50505b505050565b600082821c905092915050565b600061157160001984600802611553565b1980831691505092915050565b600061158a8383611560565b9150826002028217905092915050565b6115a382611028565b67ffffffffffffffff8111156115bc576115bb61135f565b5b6115c682546113bd565b6115d182828561150d565b600060209050601f83116001811461160457600084156115f2578287015190505b6115fc858261157e565b865550611664565b601f198416611612866113ee565b60005b8281101561163a57848901518255600182019150602085019450602081019050611615565b868310156116575784890151611653601f891682611560565b8355505b6001600288020188555050505b505050505050565b600061167782610efb565b91506000820361168a576116896112cd565b5b600182039050919050565b7f4e487b7100000000000000000000000000000000000000000000000000000000600052603160045260246000fd5b7f4f66666572656400000000000000000000000000000000000000000000000000600082015250565b60006116fa600783611033565b9150611705826116c4565b602082019050919050565b60006020820190508181036000830152611729816116ed565b9050919050565b7f5345545f43524954455249410000000000000000000000000000000000000000600082015250565b6000611766600c83611033565b915061177182611730565b602082019050919050565b6000604082019050818103600083015261179581611759565b90506117a46020830184610ffe565b92915050565b7f4578697374730000000000000000000000000000000000000000000000000000600082015250565b60006117e0600683611033565b91506117eb826117aa565b602082019050919050565b6000602082019050818103600083015261180f816117d3565b9050919050565b7f4d697373696e6700000000000000000000000000000000000000000000000000600082015250565b600061184c600783611033565b915061185782611816565b602082019050919050565b6000602082019050818103600083015261187b8161183f565b9050919050565b7f576169746c697374656400000000000000000000000000000000000000000000600082015250565b60006118b8600a83611033565b91506118c382611882565b602082019050919050565b600060208201905081810360008301526118e7816118ab565b9050919050565b7f496e76616c696400000000000000000000000000000000000000000000000000600082015250565b6000611924600783611033565b915061192f826118ee565b602082019050919050565b6000602082019050818103600083015261195381611917565b9050919050565b7f48617368206d69736d6174636800000000000000000000000000000000000000600082015250565b6000611990600d83611033565b915061199b8261195a565b602082019050919050565b600060208201905081810360008301526119bf81611983565b9050919050565b7f416c726561647900000000000000000000000000000000000000000000000000600082015250565b60006119fc600783611033565b9150611a07826119c6565b602082019050919050565b60006020820190508181036000830152611a2b816119ef565b9050919050565b6000611a3d82610efb565b9150611a4883610efb565b9250828201905080821115611a6057611a5f6112cd565b5b92915050565b6000611a7182610efb565b91507fffffffffffffffffffffffffffffffffffffffffffffffffffffffffffffffff8203611aa357611aa26112cd565b5b600182019050919050565b6000606082019050611ac36000830186610f68565b611ad06020830185610ffe565b611add6040830184611183565b949350505050565b7f4d69736d61746368000000000000000000000000000000000000000000000000600082015250565b6000611b1b600883611033565b9150611b2682611ae5565b602082019050919050565b60006020820190508181036000830152611b4a81611b0e565b9050919050565b7f4e6f7420656e6f75676820617070726f76616c73000000000000000000000000600082015250565b6000611b87601483611033565b9150611b9282611b51565b602082019050919050565b60006020820190508181036000830152611bb681611b7a565b905091905056fea2646970667358221220fc026ead1d02d4259c6c80aefc93c15ef027ee23d10cb17fb591847a44cb182864736f6c634300081c0033",
  "linkReferences": {},
  "deployedLinkReferences": {}
}